:100000000C942A000C9447000C9447000C94470071
:100010000C9447000C9447000C9447000C94470044
:100020000C9447000C9447000C9447000C94470034
:100030000C9447000C9447000C9447000C94470024
:100040000C9425010C9447000C9447000C94470035
:100050000C94470011241FBECFE5D8E0DEBFCDBF12
:1000600010E0A0E6B0E0EEE0F9E002C005900D92ED
:10007000A637B107D9F720E0A6E7B0E001C01D928E
:10008000AA37B207E1F70E9445020C9485040C944C
:10009000000080FF02C0DA9A01C0DA9881FF02C036
:1000A000DB9A01C0DB9882FF02C0DC9A01C0DC98B9
:1000B00083FF02C0DD9A0895DD980895CF93C82F7D
:1000C000DE9A82958F700E944900DE98DE9A8C2F0E
:1000D0000E944900DE9887EC90E00197F1F700C09C
:1000E0000000CF910895DF980E945E000895DF9A86
:1000F0000E945E000895CF93DF93EC0188818823EE
:1001000031F021960E94770089918111FBCFDF9118
:10011000CF91089590E4699F800D112480680E941A
:1001200073000895CF93D29AD39AD49AD59AD69A37
:10013000D79A8FE59AEE0197F1F700C00000DF989B
:10014000DE98C3E0DE9A83E00E944900DE988FE1EA
:100150009EE40197F1F700C00000C15099F7DE9AC4
:1001600082E00E944900DE988FE99FE00197F1F755
:1001700000C0000088E20E94730088E00E947300C3
:1001800081E00E9473008FE39FE10197F1F700C0C7
:10019000000086E00E9473008CE00E947300CF9103
:1001A000089584EA86BF06B607FEFDCF089584E968
:1001B00086BF06B604FCFDCF089583B984E886BFE8
:1001C00006B607FEFDCF81B121B191E0823109F081
:1001D00090E081E02C3109F080E0892B91E08927C3
:1001E0000895811102C084E801C084EC86BF06B680
:1001F00007FEFDCF83B1089584B190E0909379001C
:100200008093780025B1922B9093790080937800A9
:1002100042E3489F9001499F300D1124832F86951A
:1002200086958093760010927700089580E987BBC9
:1002300081E58DB9089580E487B98FEE86B9089578
:100240008FB9779BFECF8FB108951F920F920FB693
:100250000F9211242F933F934F935F936F937F934C
:100260008F939F93AF93BF93EF93FF930E94FC00F4
:10027000FF91EF91BF91AF919F918F917F916F917E
:100280005F914F913F912F910F900FBE0F901F9054
:100290001895EF92FF920F931F93CF93DF938C01EA
:1002A000FB017A012AE030E0B9010E942804EC0148
:1002B000C8018C1B9D0BB9010E94280462957295A0
:1002C000707F7627607F7627C60FD71FCF01B901D1
:1002D0000E9428048C01CF01801B910BB9010E9460
:1002E000280462957295707F7627607F7627060FC7
:1002F000171FC701B9010E942804FC01C7018E1B0A
:100300009F0BB9010E9428047B01EE0CFF1CEE0C30
:10031000FF1CEE0CFF1CEE0CFF1CEE0EFF1E0E94DD
:10032000D10080ED0E94DD0080E00E94DD008E2D76
:100330000E94DD00802F0E94DD008C2F0E94DD00D6
:100340000E94D700DF91CF911F910F91FF90EF9006
:100350000895EF92FF920F931F93CF93DF937C0149
:100360008B01EA010E94D10080ED0E94DD0082E055
:100370000E94DD000E94D10081ED0E94DD0080E03E
:100380000E94F10090E0F701918380830E94D700E2
:100390000E94D10080ED0E94DD0081E00E94DD001E
:1003A0000E94D10081ED0E94DD0080E00E94F100FA
:1003B00090E0F801918380830E94D7000E94D100D1
:1003C00080ED0E94DD0080E00E94DD000E94D100EF
:1003D00081ED0E94DD0080E00E94F10090E09983B1
:1003E00088830E94D700DF91CF911F910F91FF90DA
:1003F000EF9008950F931F93CF93DF938C01C498D0
:1004000080E00E942001C82FD0E080E00E942001FF
:10041000682F70E0C49ADC2FCC27675071096C0FED
:100420007D1F759567957595679575956795072EE9
:10043000000C880B990B0E942F0320E030E040E273
:100440005FE30E9493030E94F70201151105A1F0DA
:100450000130110599F49B01220F331F220F331F26
:10046000220F331FC901860F971F65E070E00E94BD
:100470002804CB01809604C0CB0102C080E090E04C
:10048000DF91CF911F910F910895CF93DF93CDB757
:10049000DEB7A4970FB6F894DEBF0FBECDBF899A22
:1004A0000E9492000E941B010E94160184E680B9FE
:1004B000789442E150E061E170E080E190E00E94D8
:1004C0004901AE014D5D5F4FBE016F5D7F4FCE01B3
:1004D0004F960E94A901009176001091770060E08C
:1004E00080E00E948A0080E690E00E947B000A3053
:1004F000110504F14AE0BE016F5F7F4FC8010E9401
:10050000500460E089E00E948A00CE0101960E94BA
:100510007B0060E08AE00E948A008AE690E00E9408
:100520007B0060E08BE00E948A00CE0102960E9470
:100530007B001FC04AE0BE016F5F7F4FC8010E9471
:10054000500460E089E00E948A008CE690E00E94FE
:100550007B0060E08AE00E948A008AE690E00E94C8
:100560007B0060E08BE00E948A00CE0101960E9431
:100570007B0080E090E00E94FA018C0161E080E065
:100580000E948A008EE690E00E947B004AE0BE0155
:100590006B5E7F4FC8010E94500461E087E00E94BB
:1005A0008A00CE0145960E947B0061E088E00E94AF
:1005B0008A00CE0146960E947B0061E089E00E949D
:1005C0008A008AE690E00E947B0061E08AE00E9457
:1005D0008A00CE0147960E947B002FEF81EE94E0C7
:1005E000215080409040E1F700C000006ACF0E9497
:1005F000FE026894B1110C948D0308950E94720359
:1006000088F09F5798F0B92F9927B751B0F0E1F0D3
:10061000660F771F881F991F1AF0BA95C9F714C083
:10062000B13091F00E948C03B1E008950C948C03DA
:10063000672F782F8827B85F39F0B93FCCF38695BC
:1006400077956795B395D9F73EF490958095709519
:1006500061957F4F8F4F9F4F0895E89409C097FB96
:100660003EF490958095709561957F4F8F4F9F4F89
:100670009923A9F0F92F96E9BB279395F6958795CD
:1006800077956795B795F111F8CFFAF4BB0F11F490
:1006900060FF1BC06F5F7F4F8F4F9F4F16C0882337
:1006A00011F096E911C0772321F09EE8872F762F6D
:1006B00005C0662371F096E8862F70E060E02AF0AE
:1006C0009A95660F771F881FDAF7880F969587959A
:1006D00097F9089557FD9058440F551F59F05F3F03
:1006E00071F04795880F97FB991F61F09F3F79F054
:1006F00087950895121613061406551FF2CF4695D6
:10070000F1DF08C0161617061806991FF1CF869557
:100710007105610508940895E894BB27662777273B
:10072000CB0197F908950E94A6030C9417040E9428
:10073000090438F00E94100420F0952311F00C9465
:1007400000040C94060411240C948D030E946A0387
:1007500070F3959FC1F3950F50E0551F629FF00114
:10076000729FBB27F00DB11D639FAA27F00DB11D2D
:10077000AA1F649F6627B00DA11D661F829F2227B6
:10078000B00DA11D621F739FB00DA11D621F839F3D
:10079000A00D611D221F749F3327A00D611D231F13
:1007A000849F600D211D822F762F6A2F11249F5761
:1007B00050409AF0F1F088234AF0EE0FFF1FBB1F64
:1007C000661F771F881F91505040A9F79E3F510523
:1007D00080F00C9400040C948D035F3FE4F3983E8A
:1007E000D4F3869577956795B795F795E7959F5FCD
:1007F000C1F7FE2B880F911D9695879597F908955F
:1008000097F99F6780E870E060E008959FEF80ECC3
:10081000089500240A941616170618060906089566
:1008200000240A9412161306140605060895092ECC
:100830000394000C11F4882352F0BB0F40F4BF2B3B
:1008400011F460FF04C06F5F7F4F8F4F9F4F08957B
:1008500097FB072E16F4009407D077FD09D00E946D
:100860003C0407FC05D03EF4909581959F4F089578
:10087000709561957F4F0895AA1BBB1B51E107C07E
:10088000AA1FBB1FA617B70710F0A61BB70B881F20
:10089000991F5A95A9F780959095BC01CD010895AF
:1008A000BB274A3031F4992322F4BDE2909581951B
:1008B0009F4F0C945C04BB27FB015527AA27880F88
:1008C000991FAA1FA41710F0A41B83955051B9F7C4
:1008D000A05DAA3308F0A95DA193009779F7B11143
:1008E000B1931192CB010C947504DC01FC01672FCC
:1008F00071917723E1F7329704C07C916D937083F7
:0E0900006291AE17BF07C8F30895F894FFCFB9
:10090E00566F6C746167653A20002E003000546596
:06091E006D703A2000009C
:00000001FF
